:020000040000FA
:100000000C9464030C94330A0C940C0A0C948C0327
:100010000C948C030C948C030C948C030C948C0324
:100020000C948C030C948C030C948C030C948C0314
:100030000C948C030C948C030C948C030C948C0304
:100040000C94C2090C948C030C94800A0C945A0AE8
:100050000C948C030C948C030C948C030C948C03E4
:100060000C948C030C948C030000000023002600E9
:100070002900540154015401540140005401540119
:1000800054015401540154015401480054015401D5
:10009000540154016A006A006C006C0074004A004C
:1000A000060054014E004E0020004E00540168002E
:1000B00000005401540154015401540154015401ED
:1000C0005401540154015401680054015401540175
:1000D00054012400010069004900710051006100D1
:1000E000410076000200720046006E006600560075
:1000F00054015401030057004F004B004D007300A2
:100100005300630044004300420062004700670060
:1001100064005400050075006B0055004500770031
:100120006D006F006500070052004A004C0074002B
:10013000060054012300250021002600220027008C
:1001400070005401540150005401540154015401F1
:1001500054015401540154015401540154015401F7
:1001600054015401540154015401540154015401E7
:1001700054015401540154015401540154015401D7
:100180005401540154015401040054015401540118
:10019000540100000000000000000000000000000A
:1001A0000000540154015401540140005401540111
:1001B00054015401540154015401480054015401A4
:1001C000540154016A006A006C006C0074004A001B
:1001D000060054014E004E0020004E0054016800FD
:1001E00000005401540154015401540154015401BC
:1001F0005401540154015401680054015401540144
:10020000540124000100690049007100510061009F
:10021000410076000200720046006E006600560043
:1002200054015401030057004F004B004D00730070
:10023000530063004400430042006200470067002F
:1002400064005400050075006B0055004500770000
:100250006D006F006500070052004A004C007400FA
:10026000060054012300250021002600220027005B
:1002700070005401540150005401540154015401C0
:1002800054015401540154015401540154015401C6
:1002900054015401540154015401540154015401B6
:1002A00054015401540154015401540154015401A6
:1002B00054015401540154010400540154015401E7
:1002C00054010000000000000000000000000000D9
:1002D00000005401540154015401400054015401E0
:1002E0005401540154015401540148005401540173
:1002F000540154016A006A006C006C0074004A00EA
:10030000060054014E004E0020004E0054016800CB
:10031000000054015401540154015401540154018A
:100320005401540154015401680054015401540112
:10033000540124000100690049007100510061006E
:10034000410076000200720046006E006600560012
:1003500054015401030057004F004B004D0073003F
:1003600053006300440043004200620047006700FE
:1003700064005400050075006B00550045007700CF
:100380006D006F006500070052004A004C007400C9
:10039000060054012300250021002600220027002A
:1003A000700054015401500054015401540154018F
:1003B0005401540154015401540154015401540195
:1003C0005401540154015401540154015401540185
:1003D0005401540154015401540154015401540175
:1003E00054015401540154010400540154015401B6
:1003F00054010000000000000000000000000000A8
:1004000000005401540154015401400054015401AE
:100410005401540154015401540148005401540141
:10042000540154016A006A006C006C0074004A00B8
:10043000060054014E004E0020004E00540168009A
:100440000000540154015401540154015401540159
:1004500054015401540154016800540154015401E1
:10046000540124000100690049007100510061003D
:10047000410076000200720046006E0066005600E1
:1004800054015401030057004F004B004D0073000E
:1004900053006300440043004200620047006700CD
:1004A00064005400050075006B005500450077009E
:1004B0006D006F006500070052004A004C00740098
:1004C00006005401230025002100260022002700F9
:1004D000700054015401500054015401540154015E
:1004E0005401540154015401540154015401540164
:1004F0005401540154015401540154015401540154
:100500005401540154015401540154015401540143
:100510005401540154015401040054015401540184
:100520005401000000000000000000000000000076
:10053000000000000000240027002A000000000046
:10054000250028002B00040404040404040402020F
:100550000202020203030303030301020408102042
:10056000408001020408102001020408102000004D
:100570000008000201000003040700000000000062
:1005800000001912181415BB161117131A40402039
:10059000200804020277017E02580312065907144C
:1005A00008110A8410761B661C0D1D5A1E291F7027
:1005B00020692172227A236B24732574266C277597
:1005C000287D29712A792C7B2D7C2E0F3F453016F2
:1005D000311E32263325342E3536363D373E3846E9
:1005E00039523A413B4E3C493D4A3E0E401C413255
:1005F000422143234424452B463447334843493B57
:100600004A424B4B4C3A4D314E444F4D5015512DB3
:10061000521B532C543C552A561D57225835591AF3
:100620005A4C5B5D5C545D5B5E555F618B0561069A
:100630006204630C6403650B6683670A68016909D9
:100640006A786B076C086D106E186F207028713017
:1006500072387340744875507657775F786D605183
:100660009113926A9364946795F296F197639862F6
:10067000995FA012BB7C041409110B1F0C270D2FCE
:100680000E7E0F6C1169127D137A146B157416753A
:100690001772187019711A5A2B4A2F4D79157A3B17
:1006A0007B347C237D327E217F508048812B8240A9
:1006B0008310843A853886308728882089188A37BD
:1006C0008C3F8D5E9000B20A11241FBECFEFD8E0A0
:1006D000DEBFCDBF11E0A0E0B1E0E6E2FAE102C08A
:1006E00005900D92A831B107D9F722E0A8E1B1E059
:1006F00001C01D92A530B207E1F713E0C4E6D3E0D4
:1007000004C02197FE010E940B0DC336D107C9F723
:100710000E94DF0A0C94110D0C9400008230D8F472
:10072000E82FF0E0EE0FFF1FEF5FFE4F2CE837E001
:1007300031832083813041F0809169008C7F826019
:1007400080936900E89A089580916900837F8860AA
:1007500080936900E99A0895FC01538D448D252FFB
:1007600030E0842F90E0821B930B541710F0CF964B
:10077000089501970895FC01918D828D981761F07D
:10078000A28DAE0FBF2FB11D5D968C91928D9F5F94
:100790009F73928F90E008958FEF9FEF0895FC0173
:1007A000918D828D981731F0828DE80FF11D858D26
:1007B00090E008958FEF9FEF0895FC01918D228DB9
:1007C000892F90E0805C9F4F821B91098F7399273E
:1007D0000895FC01A48DA80FB92FB11DA35ABF4FD6
:1007E0002C91848D90E001968F739927848FA68930
:1007F000B7892C93A089B1898C91837080648C9384
:10080000938D848D981306C00288F389E02D808132
:100810008F7D80830895EF92FF920F931F93CF9364
:10082000DF93EC0181E0888F9B8D8C8D98131AC02B
:10083000E889F989808185FF15C09FB7F894EE8912
:10084000FF896083E889F98980818370806480836F
:100850009FBF81E090E0DF91CF911F910F91FF90BA
:10086000EF900895F62E0B8D10E00F5F1F4F0F7362
:100870001127E02E8C8D8E110CC00FB607FCFACF1D
:10088000E889F989808185FFF5CFCE010E94E903CF
:10089000F1CFEB8DEC0FFD2FF11DE35AFF4FF082EE
:1008A0009FB7F8940B8FEA89FB8980818062CFCF54
:1008B000CF93DF93EC01888D8823B9F0AA89BB8997
:1008C000E889F9898C9185FD03C0808186FD0DC082
:1008D0000FB607FCF7CF8C9185FFF2CF808185FFA3
:1008E000EDCFCE010E94E903E9CFDF91CF910895CA
:1008F00088E691E00E94DD0321E0892B09F420E0E5
:10090000822F089580E090E0892B29F00E947804DE
:1009100081110C9400000895833081F028F4813017
:1009200099F08230A9F008958730A9F08830C9F095
:100930008430B1F4809180008F7D03C0809180006D
:100940008F7780938000089584B58F7784BD089554
:1009500084B58F7DFBCF8091B0008F778093B000FE
:1009600008958091B0008F7DF9CF1F93CF93DF93CF
:10097000282F30E0F901E259FA4F8491F901E65A43
:10098000FA4FD491F901EA5BFA4FC491CC23A9F054
:10099000162F81110E948C04EC2FF0E0EE0FFF1F48
:1009A000E45CFA4FA591B4918FB7F894EC911111D2
:1009B00008C0D095DE23DC938FBFDF91CF911F91CC
:1009C0000895DE2BF8CFCF93DF9390E0FC01E65A39
:1009D000FA4F24918A5B9A4FFC0184918823D1F0CD
:1009E00090E0880F991FFC01EE5CFA4FA591B4913D
:1009F000FC01E45CFA4FC591D491623071F49FB769
:100A0000F8943C91822F809583238C93E8812E2B40
:100A100028839FBFDF91CF9108958FB7F894EC9111
:100A20002E2B2C938FBFF6CF3FB7F89480914101C6
:100A300090914201A0914301B091440126B5A89B39
:100A400005C02F3F19F00196A11DB11D3FBFBA2F60
:100A5000A92F982F8827BC01CD01620F711D811D20
:100A6000911D42E0660F771F881F991F4A95D1F7A5
:100A700008958F929F92AF92BF92CF92DF92EF92A2
:100A8000FF924B015C010E9414056B017C010E94E6
:100A900014056C197D098E099F09683E7340810514
:100AA0009105A8F321E0821A9108A108B10888EE07
:100AB000C80E83E0D81EE11CF11C81149104A1042E
:100AC000B10429F7FF90EF90DF90CF90BF90AF90E7
:100AD0009F908F9008950895AF92BF92CF92DF922A
:100AE000EF92FF920F931F93CF93DF936C017B01E3
:100AF0008B01040F151FEB015E01AE18BF08C01774
:100B0000D10759F06991D601ED91FC910190F081E6
:100B1000E02DC6010995892B79F7C501DF91CF91A9
:100B20001F910F91FF90EF90DF90CF90BF90AF900B
:100B3000089510922C0110922B0110922A0110920C
:100B4000290110925D0110925C011092280110920F
:100B50004B011092460110922701089590912C01AB
:100B60009F5F963008F090E020912B01291751F0FB
:100B7000E92FF0E0EF5DFE4F808390932C0181E040
:100B800090E008958CEF9FEF0895CF93DF938093CB
:100B9000200180931F011092280110921E01809164
:100BA0002701806C8093270180912A0187FD0DC069
:100BB00080912A0180FF09C08091290180931D0145
:100BC0008091270180618093270180912D018230DF
:100BD00009F441C0833061F4E99881E090E0880F26
:100BE000991FFC01EF5FFE4F8BE695E091838083B8
:100BF000D0912E0161E08D2F0E94B50461E08D2F10
:100C00000E94E304C0912D0161E08C2F0E94B50485
:100C100061E08C2F0E94E30483E290E00197F1F7FA
:100C200060E08C2F0E94B5048BEE90E00197F1F705
:100C300060E08D2F0E94B50462E08C2F0E94E304D7
:100C400080E0C23021F08FEFC33009F481E0DF9102
:100C5000CF910C948E03E89890E080E0C0CF909103
:100C60002B0180912C01891799F180912A018160D3
:100C700080932A0180912A0187FD2DC08091270150
:100C800087FD29C0109229012FEF3FEF9F5F96301B
:100C900008F090E0E92FF0E0EF5DFE4F2F3F3207C4
:100CA00071F4208130E090932B0180912C01891305
:100CB000EDCF822F0E94C50581E090E008958081EC
:100CC0008B3BB9F7809129018F5F80932901EBCF8E
:100CD0008EEF9FEF08958AE79FEF08958DEE0E94B3
:100CE000AE058BEB0E94AE05809146010E94AE05D9
:100CF0008BEB0E94AE05892B11F00C942F06089502
:100D00000F931F93CF93DF9310916701809166013A
:100D1000181B17FD1C5F01E0133064F580915D0125
:100D2000A0915C018A1B87FD885F882319F180915F
:100D30005D01A817F9F0AF5FA83008F0A0E0A0931C
:100D40005C01B0E0AA0FBB1FA45BBE4FCD91DC914C
:100D500011978D919C9192FDC0C02C2FCA3A20F022
:100D60008C2F815F823010F494FF0AC0DD2720971A
:100D700009F0B5C0812FDF91CF911F910F91089598
:100D800080914B0195FF18C0806880934B01D0E0A3
:100D9000C0E093FF1EC0FE01ED58F94FE4912E1301
:100DA0000DC0CC58D94FFE01C491D0E02097D1F4AA
:100DB00080914B01D82BDBCF8F77E7CF2296C235BE
:100DC000D10549F7D0E0C0E0F3CF2296CE3DD10562
:100DD000C9F3FE01EB56FA4FE4912E13F6CFCA5633
:100DE000DA4FE1CF80914B01FE01C430D10508F00C
:100DF00049C0E95BFE4F87FF04C01082CBEBD0E017
:100E00001BC090819130D1F30083C230D105A1F194
:100E1000C330D10541F182E090914601292F28236A
:100E200069F120914B0180958923809346012068C8
:100E300020934B010E946E0680914B0187FF04C0F6
:100E40009091450193FD65C09E01205231092134E6
:100E5000310508F440C0CB38D10509F43CC08160AD
:100E600080934B01A5CF84FF05C08F7E80934B01FB
:100E700084E0D2CF8061FACF81E0CECF892B8093FE
:100E80004601D8CF3697E830F10598F4E357FA4F8A
:100E9000E49187FF05C0E095E823E0934B01CCCFB8
:100EA0009E2F982321F09091450197FDA7CFE82B25
:100EB000F4CFFE01B097EB30F10508F0BDCF909173
:100EC000460191FF02C086FFB7CFEE57FA4FE4917B
:100ED000CE2FD0E0B1CF8E7FC3CFC6E0D0E0CE0121
:100EE00099278B3B910509F417CF892B09F414CF6F
:100EF000809167018F5F84300CF080E0E82FEE0F67
:100F0000FF0BE25AFE4FD183C083809367011F5FBE
:100F100003CFCBEBD0E0E3CFCF92DF92EF92FF9203
:100F20000F931F93CF93DF938091270186FF74C0A7
:100F3000809128018F5F80932801809128018A3059
:100F400048F4823098F560E0813009F448C010928E
:100F50002801C4C08B3009F44EC0E8F18C30B9F7D9
:100F600080911F018E3E69F080911F018E3F49F0F4
:100F700080911F01809318018091270182608093E6
:100F80002701809127018F7B8093270180912A017F
:100F900087FF3EC080912A018F7780932A0180913C
:100FA000270184FDD4CF0E942F06D1CFC09120010C
:100FB000C1706C2F80912E010E94B50480911E019A
:100FC000C80FC0931E018091200190E095958795F0
:100FD0008093200183C060911E01609561708091B3
:100FE0002E01DF91CF911F910F91FF90EF90DF9035
:100FF000CF900C94B50462E080912E01DF91CF91E7
:101000001F910F91FF90EF90DF90CF900C94E3042D
:1010100080912A018E7FC1CF20912E0130E0F9010D
:10102000E259FA4F8491F901E65AFA4FD491F90145
:10103000EA5BFA4FC491CC2379F081110E948C04B1
:10104000EC2FF0E0EE0FFF1FE859FF4FA591B49190
:10105000EC91ED2381E009F480E09FB7F894409192
:101060003D0150913E0160913F01709140019FBF51
:101070000091190110911A0120911B0130911C015E
:101080006A017B01C01AD10AE20AF30A97018601BC
:101090000B3F11052105310520F010922801109217
:1010A00020014093190150931A0160931B01709322
:1010B0001C01909128019F5F909328019091280135
:1010C0009A30A8F4923028F5913009F040CF109270
:1010D0001E0180912701806880932701DF91CF91C5
:1010E0001F910F91FF90EF90DF90CF9008959A306D
:1010F00019F19B3009F02BCF80911E018D3F48F1F3
:101100008EEF0E94C50580912A01806880932A0194
:101110001ECF90911E01980F90931E0120912001E7
:1011200030E0359527952093200190E0811190E8DB
:1011300080912001892B4CCF90911E01917090934A
:101140001E0190911E018913C9CF8DEF80931E015E
:10115000C5CF809120018E3F29F0909127019D7F7E
:10116000909327019091270194FF02C0803F70F077
:101170009091270192FD91C08E3E09F477C0E8F46A
:101180008A3A09F47FC020F4882359F186E02CC004
:10119000803E09F47BC0813EC9F78091270182FD22
:1011A0001AC087E080931D0180912701846080939D
:1011B0002701809127018F7D0CC08C3F09F44EC020
:1011C00060F4803F19F781E080931D018091270131
:1011D00080628093270180E007C08E3FA9F18F3F96
:1011E000A9F60E9499058CE081FF05C090911D0130
:1011F000915090931D0190911D01191614F482FFD6
:101200001EC090915D019F5F983008F090E02091A2
:101210005C012917A1F020912001E92FF0E030E0D6
:10122000EE0FFF1FE45BFE4F3183208340912701C7
:1012300020813181342B3183208390935D01807133
:1012400071F180911F015DCF8091270181FFC3CF94
:101250008091180180931F0180E1C6CF10921D017B
:101260001092270110922A018EE0BECF90912701A3
:1012700091FF0AC0909118019E3E31F080931F01AA
:1012800084E1B2CF10921D0184E0AECF81E0809363
:101290001D018091270188609CCF82E0A5CF8091BD
:1012A0001D0118160CF453CE80912701837C809386
:1012B000270110921D01809127018F7780932701CC
:1012C00072CE0F931F93CF93DF938C0180349105DF
:1012D00048F160E08BE00E94B504003A1105D0F4BB
:1012E000C5E0D0E0CE010597B80102C076956795BC
:1012F0008A95E2F761708C2F0E94B5042196CB305D
:10130000D10581F761E084E00E94B50460E084E0EB
:101310000E94B50460E08BE0DF91CF911F910F91A7
:101320000C94B50461E08BE00E94B504D9CF60E075
:1013300082E00E94B50461E08DE00E94B50461E0A6
:1013400084E00E94B50460E08DE00E94B50460E096
:1013500084E00E94B50461E082E00E94B50410922E
:10136000460180914B018F7E80934B010E946E0657
:101370001092310110922F011092300181E0809380
:10138000000108951F920F920FB60F9211242F9310
:101390003F938F939F93AF93BF9380913D01909123
:1013A0003E01A0913F01B091400130913C0123E00A
:1013B000230F2D3758F50196A11DB11D20933C0137
:1013C00080933D0190933E01A0933F01B093400173
:1013D0008091410190914201A0914301B09144015B
:1013E0000196A11DB11D8093410190934201A093EC
:1013F0004301B0934401BF91AF919F918F913F9171
:101400002F910F900FBE0F901F90189526E8230F75
:101410000296A11DB11DD2CF1F920F920FB60F924F
:1014200011242F933F934F935F936F937F938F93E9
:101430009F93AF93BF93EF93FF93E0910301F091DC
:1014400004010995FF91EF91BF91AF919F918F9109
:101450007F916F915F914F913F912F910F900FBEB0
:101460000F901F9018951F920F920FB60F92112494
:101470002F933F934F935F936F937F938F939F939C
:10148000AF93BF93EF93FF93E0910101F0910201BD
:101490000995FF91EF91BF91AF919F918F917F91AE
:1014A0006F915F914F913F912F910F900FBE0F90D1
:1014B0001F9018951F920F920FB60F9211242F9321
:1014C0003F934F935F936F937F938F939F93AF93CC
:1014D000BF93EF93FF9388E691E00E94E903FF91A9
:1014E000EF91BF91AF919F918F917F916F915F919C
:1014F0004F913F912F910F900FBE0F901F90189515
:101500001F920F920FB60F9211242F938F939F93D8
:10151000EF93FF93E0917801F09179018081E09160
:101520007E01F0917F0182FD1BC09081809181013D
:101530008F5F8F7320918201821741F0E0918101CA
:10154000F0E0E859FE4F958F80938101FF91EF9174
:101550009F918F912F910F900FBE0F901F90189514
:101560008081F4CFE8E6F1E01382128288EE93E006
:10157000A0E0B0E084839583A683B78389E091E0FF
:101580009183808385EC90E09587848784EC90E05C
:101590009787868780EC90E0918B808B81EC90E040
:1015A000938B828B82EC90E0958B848B86EC90E021
:1015B000978B868B118E128E138E148E08957894CD
:1015C00084B5826084BD84B5816084BD85B5826048
:1015D00085BD85B5816085BD80916E0081608093F9
:1015E0006E00109281008091810082608093810062
:1015F0008091810081608093810080918000816072
:10160000809380008091B10084608093B1008091CC
:10161000B00081608093B00080917A0084608093F4
:101620007A0080917A00826080937A0080917A00BB
:10163000816080937A0080917A00806880937A003C
:101640001092C10082E790E090933A0180933901B3
:10165000C5E061E08C2F0E94E304CF5FCB30C9F777
:1016600061E08BE00E94E30461E084E00E94E30417
:1016700061E082E00E94E30461E08DE00E94E30407
:1016800061E082E00E94E30461E081E10E94E30402
:1016900061E08EE00E94E30461E08FE00E94E304D9
:1016A00061E080E10E94E30461E082E10E94E304E2
:1016B00060E081E10E94B50460E08EE00E94B50424
:1016C00060E08FE00E94B50460E080E10E94B50414
:1016D00061E082E10E94B50464E670E080E090E0A1
:1016E0000E9439050E94970964E670E080E090E06E
:1016F0000E9439050E94970968EE73E080E090E04F
:101700000E9439050E9499058CE080932E0183E0A8
:1017100080932D0162E00E94E30462E08CE00E946D
:10172000E30481E00E948E03809145018068877FF9
:1017300080934501B0E0EB2EB0E0FB2E0E948006C6
:10174000882309F494C00E94800630E020E08823BA
:1017500079F0E0916601EF5FE43008F0E0E0E093BB
:101760006601F0E0EE0FFF1FE25AFE4F208131814B
:1017700030933B01122F80910001D0E0C0E0823015
:1017800099F460913B018091390190913A01A9014E
:101790005527440F551FFC0166FF75C0E057FC4FED
:1017A000E40FF51FC591D49180910001813089F437
:1017B00080913B01E0913901F0913A013327220FEA
:1017C000331F86FF02C0E05DFE4FE20FF31FC5919D
:1017D000D4911A3F69F0143009F05DC080913B014B
:1017E00087FF54C01092380160E08FE00E94B5047A
:1017F000C4E5D1E080913501811104C080913401AC
:1018000060E0811161E080E10E94B504163009F0CA
:1018100081C080913B0187FF79C010923301C4E5FC
:10182000D1E080913301811104C08091320160E0E8
:10183000811161E08EE00E94B5041C3609F078C089
:101840000E94970980913B0187FD0DC082E0809343
:10185000000181E08093460180914B018F7E80934F
:101860004B010E946E0661E082E00E94B504E11423
:10187000F10409F463CF0E947804882309F45ECF51
:101880000E9400005BCFE05AFD4F8ACF81E0809339
:10189000380161E0AACF1E3071F480913B0187FFCF
:1018A00005C01092370160E081E1A0CF81E0809314
:1018B000370161E0F9CF1A3071F480913B0187FF65
:1018C00005C01092360161E082E190CF81E0809303
:1018D000360160E0F9CF183059F480913B0187FF61
:1018E00003C01092350184CF81E08093350180CF11
:1018F000193009F07FCF80913B0187FF03C0109220
:10190000340176CF81E08093340172CF81E08093FF
:10191000330185CF173009F084CF80913B0187FFD9
:1019200003C0109232017BCF81E08093320177CFE8
:101930001330E9F48091310191E0892780933101DE
:1019400061E082E00E94B50488E490E00E946109B1
:1019500064E670E080E090E00E94390560E082E09B
:101960000E94B50488E490E00E9461097CCF1B3698
:1019700081F480913B0187FD0CC081E080930001E0
:101980001092460180914B018F7E80934B010E9403
:101990006E06C43581E0D80709F465CFC03AD10599
:1019A000F0F0C05AD10980913001811104C08091BA
:1019B0002F0161E0811160E08EE00E94B50461E0DA
:1019C00082E00E94B504CE010E94610980913B0132
:1019D00087FF05C060912F018EE00E94B5048091C1
:1019E0003B0186FF05C081E08093300180932F0189
:1019F00080913B0187FF08C060E082E00E94B5044F
:101A00001092300110922F01C43581E0D80709F4FB
:101A10002ACFCE01A9CFEE0FFF1F0590F491E02D44
:101A20000994F894FFCF016B056B05000000000BD3
:0E1A3000046C05AC035804DD03BB03CF0300B8
:107E0000112484B714BE81FFF0D085E080938100F7
:107E100082E08093C00088E18093C10086E0809377
:107E2000C20080E18093C4008EE0C9D0259A86E02C
:107E300020E33CEF91E0309385002093840096BBD3
:107E4000B09BFECF1D9AA8958150A9F7CC24DD24C4
:107E500088248394B5E0AB2EA1E19A2EF3E0BF2EE7
:107E6000A2D0813461F49FD0082FAFD0023811F036
:107E7000013811F484E001C083E08DD089C08234E0
:107E800011F484E103C0853419F485E0A6D080C0E4
:107E9000853579F488D0E82EFF2485D0082F10E0AE
:107EA000102F00270E291F29000F111F8ED06801E7
:107EB0006FC0863521F484E090D080E0DECF843638
:107EC00009F040C070D06FD0082F6DD080E0C81688
:107ED00080E7D80618F4F601B7BEE895C0E0D1E017
:107EE00062D089930C17E1F7F0E0CF16F0E7DF06D8
:107EF00018F0F601B7BEE89568D007B600FCFDCFD4
:107F0000A601A0E0B1E02C9130E011968C91119780
:107F100090E0982F8827822B932B1296FA010C0160
:107F200087BEE89511244E5F5F4FF1E0A038BF0790
:107F300051F7F601A7BEE89507B600FCFDCF97BE46
:107F4000E89526C08437B1F42ED02DD0F82E2BD052
:107F50003CD0F601EF2C8F010F5F1F4F84911BD097
:107F6000EA94F801C1F70894C11CD11CFA94CF0C13
:107F7000D11C0EC0853739F428D08EE10CD085E9AC
:107F80000AD08FE07ACF813511F488E018D01DD067
:107F900080E101D065CF982F8091C00085FFFCCF94
:107FA0009093C60008958091C00087FFFCCF809118
:107FB000C00084FD01C0A8958091C6000895E0E648
:107FC000F0E098E1908380830895EDDF803219F02E
:107FD00088E0F5DFFFCF84E1DECF1F93182FE3DFCA
:107FE0001150E9F7F2DF1F91089580E0E8DFEE27F6
:047FF000FF270994CA
:027FFE00040479
:00000001FF
