:020000040000FA
:100000000C9464030C94980A0C94710A0C948C035D
:100010000C948C030C948C030C948C030C948C0324
:100020000C948C030C948C030C948C030C948C0314
:100030000C948C030C948C030C948C030C948C0304
:100040000C94270A0C948C030C94E50A0C94BF0AB8
:100050000C948C030C948C030C948C030C948C03E4
:100060000C948C030C948C030000000023002600E9
:100070002900540154015401540140005401540119
:1000800054015401540154015401480054015401D5
:10009000540154016A006A006C006C0074004A004C
:1000A000060054014E004E0020004E00540168002E
:1000B00000005401540154015401540154015401ED
:1000C0005401540154015401680054015401540175
:1000D00054012400010069004900710051006100D1
:1000E000410076000200720046006E006600560075
:1000F00054015401030057004F004B004D007300A2
:100100005300630044004300420062004700670060
:1001100064005400050075006B0055004500770031
:100120006D006F006500070052004A004C0074002B
:10013000060054012300250021002600220027008C
:1001400070005401540150005401540154015401F1
:1001500054015401540154015401540154015401F7
:1001600054015401540154015401540154015401E7
:1001700054015401540154015401540154015401D7
:100180005401540154015401040054015401540118
:10019000540100000000000000000000000000000A
:1001A0000000540154015401540140005401540111
:1001B00054015401540154015401480054015401A4
:1001C000540154016A006A006C006C0074004A001B
:1001D000060054014E004E0020004E0054016800FD
:1001E00000005401540154015401540154015401BC
:1001F0005401540154015401680054015401540144
:10020000540124000100690049007100510061009F
:10021000410076000200720046006E006600560043
:1002200054015401030057004F004B004D00730070
:10023000530063004400430042006200470067002F
:1002400064005400050075006B0055004500770000
:100250006D006F006500070052004A004C007400FA
:10026000060054012300250021002600220027005B
:1002700070005401540150005401540154015401C0
:1002800054015401540154015401540154015401C6
:1002900054015401540154015401540154015401B6
:1002A00054015401540154015401540154015401A6
:1002B00054015401540154010400540154015401E7
:1002C00054010000000000000000000000000000D9
:1002D00000005401540154015401400054015401E0
:1002E0005401540154015401540148005401540173
:1002F000540154016A006A006C006C0074004A00EA
:10030000060054014E004E0020004E0054016800CB
:10031000000054015401540154015401540154018A
:100320005401540154015401680054015401540112
:10033000540124000100690049007100510061006E
:10034000410076000200720046006E006600560012
:1003500054015401030057004F004B004D0073003F
:1003600053006300440043004200620047006700FE
:1003700064005400050075006B00550045007700CF
:100380006D006F006500070052004A004C007400C9
:10039000060054012300250021002600220027002A
:1003A000700054015401500054015401540154018F
:1003B0005401540154015401540154015401540195
:1003C0005401540154015401540154015401540185
:1003D0005401540154015401540154015401540175
:1003E00054015401540154010400540154015401B6
:1003F00054010000000000000000000000000000A8
:1004000000005401540154015401400054015401AE
:100410005401540154015401540148005401540141
:10042000540154016A006A006C006C0074004A00B8
:10043000060054014E004E0020004E00540168009A
:100440000000540154015401540154015401540159
:1004500054015401540154016800540154015401E1
:10046000540124000100690049007100510061003D
:10047000410076000200720046006E0066005600E1
:1004800054015401030057004F004B004D0073000E
:1004900053006300440043004200620047006700CD
:1004A00064005400050075006B005500450077009E
:1004B0006D006F006500070052004A004C00740098
:1004C00006005401230025002100260022002700F9
:1004D000700054015401500054015401540154015E
:1004E0005401540154015401540154015401540164
:1004F0005401540154015401540154015401540154
:100500005401540154015401540154015401540143
:100510005401540154015401040054015401540184
:100520005401000000000000000000000000000076
:10053000000000000000240027002A000000000046
:10054000250028002B00040404040404040402020F
:100550000202020203030303030301020408102042
:10056000408001020408102001020408102000004D
:100570000008000201000003040700000000000062
:1005800000001912181415BB161117131A40402039
:10059000200804020277017E02580312065907144C
:1005A00008110A8410761B661C0D1D5A1E291F7027
:1005B00020692172227A236B24732574266C277597
:1005C000287D29712A792C7B2D7C2E0F3F453016F2
:1005D000311E32263325342E3536363D373E3846E9
:1005E00039523A413B4E3C493D4A3E0E401C413255
:1005F000422143234424452B463447334843493B57
:100600004A424B4B4C3A4D314E444F4D5015512DB3
:10061000521B532C543C552A561D57225835591AF3
:100620005A4C5B5D5C545D5B5E555F618B0561069A
:100630006204630C6403650B6683670A68016909D9
:100640006A786B076C086D106E186F207028713017
:1006500072387340744875507657775F786D605183
:100660009113926A9364946795F296F197639862F6
:10067000995FA012BB7C041409110B1F0C270D2FCE
:100680000E7E0F6C1169127D137A146B157416753A
:100690001772187019711A5A2B4A2F4D79157A3B17
:1006A0007B347C237D327E217F508048812B8240A9
:1006B0008310843A853886308728882089188A37BD
:1006C0008C3F8D5E9000170B11241FBECFEFD8E03A
:1006D000DEBFCDBF12E0A0E0B1E0EEE8FCE102C079
:1006E00005900D92AE31B107D9F723E0AEE1B2E04B
:1006F00001C01D92AB30B207E1F713E0C4E6D3E0CE
:1007000004C02197FE010E943F0EC336D107C9F7EE
:100710000E94440B0C94450E0C9400008230D8F4D7
:10072000E82FF0E0EE0FFF1FEF5FFE4F2CE837E001
:1007300031832083813041F0809169008C7F826019
:1007400080936900E89A089580916900837F8860AA
:1007500080936900E99A0895833081F028F481300C
:1007600099F08230A9F008958730A9F08830C9F057
:100770008430B1F4809180008F7D03C0809180002F
:100780008F7780938000089584B58F7784BD089516
:1007900084B58F7DFBCF8091B0008F778093B000C0
:1007A00008958091B0008F7DF9CF1F93CF93DF9391
:1007B000282F30E0F901E259FA4F8491F901E65A05
:1007C000FA4FD491F901EA5BFA4FC491CC23A9F016
:1007D000162F81110E94AC03EC2FF0E0EE0FFF1FEB
:1007E000E45CFA4FA591B4918FB7F894EC91111194
:1007F00008C0D095DE23DC938FBFDF91CF911F918E
:100800000895DE2BF8CFCF93DF9390E0FC01E65AFA
:10081000FA4F24918A5B9A4FFC0184918823D1F08E
:1008200090E0880F991FFC01EE5CFA4FA591B491FE
:10083000FC01E45CFA4FC591D491623071F49FB72A
:10084000F8943C91822F809583238C93E8812E2B02
:1008500028839FBFDF91CF9108958FB7F894EC91D3
:100860002E2B2C938FBFF6CF3FB7F8948091470281
:1008700090914802A0914902B0914A0226B5A89BE6
:1008800005C02F3F19F00196A11DB11D3FBFBA2F22
:10089000A92F982F8827BC01CD01620F711D811DE2
:1008A000911D42E0660F771F881F991F4A95D1F767
:1008B00008958F929F92AF92BF92CF92DF92EF9264
:1008C000FF924B015C010E9434046B017C010E9489
:1008D00034046C197D098E099F09683E73408105B7
:1008E0009105A8F321E0821A9108A108B10888EEC9
:1008F000C80E83E0D81EE11CF11C81149104A104F0
:10090000B10429F7FF90EF90DF90CF90BF90AF90A8
:100910009F908F9008950895AF92BF92CF92DF92EB
:10092000EF92FF920F931F93CF93DF936C017B01A4
:100930008B01040F151FEB015E01AE18BF08C01735
:10094000D10759F06991D601ED91FC910190F081A8
:10095000E02DC6010995892B79F7C501DF91CF916B
:100960001F910F91FF90EF90DF90CF90BF90AF90CD
:100970000895FC01538D448D252F30E0842F90E0A5
:10098000821B930B541710F0CF960895019708958A
:10099000FC01918D828D981761F0A28DAE0FBF2F53
:1009A000B11D5D968C91928D9F5F9F73928F90E0A9
:1009B00008958FEF9FEF0895FC01918D828D981718
:1009C00031F0828DE80FF11D858D90E008958FEF55
:1009D0009FEF0895FC01918D228D892F90E0805C1E
:1009E0009F4F821B91098F73992708958EE692E09D
:1009F0000E94EA0421E0892B09F420E0822F089567
:100A000080E090E0892B29F00E94F60481110C947B
:100A100000000895FC01A48DA80FB92FB11DA35AA1
:100A2000BF4F2C91848D90E001968F739927848F0E
:100A3000A689B7892C93A089B1898C918370806431
:100A40008C93938D848D981306C00288F389E02DD2
:100A500080818F7D80830895EF92FF920F931F9383
:100A6000CF93DF93EC0181E0888F9B8D8C8D981361
:100A70001AC0E889F989808185FF15C09FB7F8946D
:100A8000EE89FF896083E889F989808183708064B9
:100A900080839FBF81E090E0DF91CF911F910F9104
:100AA000FF90EF900895F62E0B8D10E00F5F1F4F13
:100AB0000F731127E02E8C8D8E110CC00FB607FC22
:100AC000FACFE889F989808185FFF5CFCE010E94B0
:100AD0000A05F1CFEB8DEC0FFD2FF11DE35AFF4F0F
:100AE000F0829FB7F8940B8FEA89FB89808180623E
:100AF000CFCFCF93DF93EC01888D8823B9F0AA89FB
:100B0000BB89E889F9898C9185FD03C0808186FDC8
:100B10000DC00FB607FCF7CF8C9185FFF2CF808117
:100B200085FFEDCFCE010E940A05E9CFDF91CF917D
:100B300008951092320210923102109230021092F7
:100B40002F02109263021092620210922E021092F3
:100B5000510210924C0210922D020895909132028F
:100B60009F5F963008F090E020913102291751F0F4
:100B7000E92FF0E0E95DFD4F80839093320281E040
:100B800090E008958CEF9FEF0895CF93DF938093CB
:100B900026028093250210922E0210922402809148
:100BA0002D02806C80932D028091300287FD0DC054
:100BB0008091300280FF09C080912F028093230230
:100BC00080912D02806180932D02809133028230CA
:100BD00009F441C0833061F4E99881E090E0880F26
:100BE000991FFC01EF5FFE4F8BE894E091838083B7
:100BF000D091340261E08D2F0E94D50361E08D2FEA
:100C00000E940304C091330261E08C2F0E94D5033F
:100C100061E08C2F0E94030483E290E00197F1F7DA
:100C200060E08C2F0E94D5038BEE90E00197F1F7E6
:100C300060E08D2F0E94D50362E08C2F0E94030498
:100C400080E0C23021F08FEFC33009F481E0DF9102
:100C5000CF910C948E03E89890E080E0C0CF909103
:100C6000310280913202891799F1809130028160BE
:100C7000809330028091300287FD2DC080912D023B
:100C800087FD29C010922F022FEF3FEF9F5F963014
:100C900008F090E0E92FF0E0E95DFD4F2F3F3207CB
:100CA00071F4208130E090933102809132028913F7
:100CB000EDCF822F0E94C50581E090E008958081EC
:100CC0008B3BB9F780912F028F5F80932F02EBCF80
:100CD0008EEF9FEF08958AE79FEF08958DEE0E94B3
:100CE000AE058BEB0E94AE0580914C020E94AE05D2
:100CF0008BEB0E94AE05892B11F00C942F06089502
:100D00000F931F93CF93DF9310916D0280916C022C
:100D1000181B17FD1C5F01E0133064F5809163021E
:100D2000A09162028A1B87FD885F882319F1809158
:100D30006302A817F9F0AF5FA83008F0A0E0A09315
:100D40006202B0E0AA0FBB1FAE5ABD4FCD91DC913D
:100D500011978D919C9192FDC0C02C2FCA3A20F022
:100D60008C2F815F823010F494FF0AC0DD2720971A
:100D700009F0B5C0812FDF91CF911F910F91089598
:100D80008091510295FF18C0806880935102D0E095
:100D9000C0E093FF1EC0FE01ED58F94FE4912E1301
:100DA0000DC0CC58D94FFE01C491D0E02097D1F4AA
:100DB00080915102D82BDBCF8F77E7CF2296C235B7
:100DC000D10549F7D0E0C0E0F3CF2296CE3DD10562
:100DD000C9F3FE01EB56FA4FE4912E13F6CFCA5633
:100DE000DA4FE1CF80915102FE01C430D10508F005
:100DF00049C0E35BFD4F87FF04C01082CBEBD0E01E
:100E00001BC090819130D1F30083C230D105A1F194
:100E1000C330D10541F182E090914C02292F282363
:100E200069F1209151028095892380934C022068BA
:100E3000209351020E946E068091510287FF04C0E8
:100E400090914B0293FD65C09E01205231092134DF
:100E5000310508F440C0CB38D10509F43CC08160AD
:100E600080935102A5CF84FF05C08F7E80935102ED
:100E700084E0D2CF8061FACF81E0CECF892B8093FE
:100E80004C02D8CF3697E830F10598F4E357FA4F83
:100E9000E49187FF05C0E095E823E0935102CCCFB1
:100EA0009E2F982321F090914B0297FDA7CFE82B1E
:100EB000F4CFFE01B097EB30F10508F0BDCF909173
:100EC0004C0291FF02C086FFB7CFEE57FA4FE49174
:100ED000CE2FD0E0B1CF8E7FC3CFC6E0D0E0CE0121
:100EE00099278B3B910509F417CF892B09F414CF6F
:100EF00080916D028F5F84300CF080E0E82FEE0F60
:100F0000FF0BEC59FD4FD183C08380936D021F5FAF
:100F100003CFCBEBD0E0E3CFCF92DF92EF92FF9203
:100F20000F931F93CF93DF9380912D0286FF74C0A0
:100F300080912E028F5F80932E0280912E028A3044
:100F400048F4823098F560E0813009F448C010928E
:100F50002E02C4C08B3009F44EC0E8F18C30B9F7D2
:100F6000809125028E3E69F0809125028E3F49F0E6
:100F70008091250280931E0280912D0282608093D1
:100F80002D0280912D028F7B80932D028091300263
:100F900087FF3EC0809130028F778093300280912E
:100FA0002D0284FDD4CF0E942F06D1CFC0912602FE
:100FB000C1706C2F809134020E94D503809124026D
:100FC000C80FC09324028091260290E095958795E2
:100FD0008093260283C060912402609561708091A5
:100FE0003402DF91CF911F910F91FF90EF90DF902E
:100FF000CF900C94D50362E080913402DF91CF91C1
:101000001F910F91FF90EF90DF90CF900C9403040D
:10101000809130028E7FC1CF2091340230E0F901FF
:10102000E259FA4F8491F901E65AFA4FD491F90145
:10103000EA5BFA4FC491CC2379F081110E94AC0392
:10104000EC2FF0E0EE0FFF1FE859FF4FA591B49190
:10105000EC91ED2381E009F480E09FB7F894409192
:1010600043025091440260914502709146029FBF35
:1010700000911F0210912002209121023091220242
:101080006A017B01C01AD10AE20AF30A97018601BC
:101090000B3F11052105310520F010922E02109210
:1010A000260240931F025093200260932102709306
:1010B000220290912E029F5F90932E0290912E0219
:1010C0009A30A8F4923028F5913009F040CF109270
:1010D000240280912D02806880932D02DF91CF91B0
:1010E0001F910F91FF90EF90DF90CF9008959A306D
:1010F00019F19B3009F02BCF809124028D3F48F1EC
:101100008EEF0E94C5058091300280688093300286
:101110001ECF90912402980F9093240220912602D2
:1011200030E0359527952093260290E0811190E8D4
:1011300080912602892B4CCF90912402917090933C
:101140002402909124028913C9CF8DEF8093240249
:10115000C5CF809126028E3F29F090912D029D7F70
:1011600090932D0290912D0294FF02C0803F70F069
:1011700090912D0292FD91C08E3E09F477C0E8F463
:101180008A3A09F47FC020F4882359F186E02CC004
:10119000803E09F47BC0813EC9F780912D0282FD1B
:1011A0001AC087E08093230280912D02846080938F
:1011B0002D0280912D028F7D0CC08C3F09F44EC012
:1011C00060F4803F19F781E08093230280912D0223
:1011D000806280932D0280E007C08E3FA9F18F3F8F
:1011E000A9F60E9499058CE081FF05C09091230229
:1011F00091509093230290912302191614F482FFC8
:101200001EC0909163029F5F983008F090E020919B
:1012100062022917A1F020912602E92FF0E030E0C8
:10122000EE0FFF1FEE5AFD4F3183208340912D02B8
:1012300020813181342B318320839093630280712C
:1012400071F1809125025DCF80912D0281FFC3CF86
:1012500080911E028093250280E1C6CF1092230266
:1012600010922D02109230028EE0BECF90912D028E
:1012700091FF0AC090911E029E3E31F0809325029C
:1012800084E1B2CF1092230284E0AECF81E080935C
:10129000230280912D0288609CCF82E0A5CF8091AF
:1012A000230218160CF453CE80912D02837C809378
:1012B0002D021092230280912D028F7780932D02B0
:1012C00072CE60E082E00E94D50361E08DE00E9472
:1012D000D50361E084E00E94D50360E08DE00E94C8
:1012E000D50360E084E00E94D50361E082E00E94C3
:1012F000D50310924C02809151028F7E809351024F
:101300000E946E0610923702109235021092360239
:1013100081E0809300010895FC0101900020E9F72D
:101320003197AF01481B590BBC018EE692E00C943B
:101330008C048F929F92AF92BF920F931F93CF9383
:10134000DF93CDB7DEB7A1970FB6F894DEBF0FBE1F
:10135000CDBF19A2423008F44AE08E010F5D1F4F45
:10136000842E912CB12CA12CA50194010E941D0E5C
:10137000E62FB901CA01EA30F4F4E05DD801EE933A
:101380008D01232B242B252B79F790E080E01097FB
:1013900019F0CD010E948C09A1960FB6F894DEBF1A
:1013A0000FBECDBFDF91CF911F910F91BF90AF9036
:1013B0009F908F900895E95CE1CFCF93DF930E94D7
:1013C0008C09EC0187E191E00E948C098C0F9D1F34
:1013D000DF91CF9108950F931F93CF93DF938C01EB
:1013E00060E08034910508F461E08BE00E94D50351
:1013F000B80190E080E04AE00E94990987E191E01D
:101400000E948C09003A1105D0F4C5E0D0E0CE016D
:101410000597B80102C0769567958A95E2F76170E5
:101420008C2F0E94D5032196CB30D10581F761E046
:1014300084E00E94D50360E084E00E94D50360E070
:101440008BE0DF91CF911F910F910C94D5031F92E8
:101450000F920FB60F9211242F933F938F939F9368
:10146000AF93BF938091430290914402A0914502B3
:10147000B09146023091420223E0230F2D3758F5F8
:101480000196A11DB11D20934202809343029093C7
:101490004402A0934502B093460280914702909186
:1014A0004802A0914902B0914A020196A11DB11DC6
:1014B0008093470290934802A0934902B0934A0256
:1014C000BF91AF919F918F913F912F910F900FBE40
:1014D0000F901F90189526E8230F0296A11DB11DAD
:1014E000D2CF1F920F920FB60F9211242F933F93DA
:1014F0004F935F936F937F938F939F93AF93BF931C
:10150000EF93FF93E0910301F09104010995FF919E
:10151000EF91BF91AF919F918F917F916F915F916B
:101520004F913F912F910F900FBE0F901F901895E4
:101530001F920F920FB60F9211242F933F934F9348
:101540005F936F937F938F939F93AF93BF93EF932B
:10155000FF93E0910101F09102010995FF91EF9154
:10156000BF91AF919F918F917F916F915F914F91BB
:101570003F912F910F900FBE0F901F9018951F92C3
:101580000F920FB60F9211242F933F934F935F93B7
:101590006F937F938F939F93AF93BF93EF93FF933B
:1015A0008EE692E00E940A05FF91EF91BF91AF9104
:1015B0009F918F917F916F915F914F913F912F916B
:1015C0000F900FBE0F901F9018951F920F920FB69D
:1015D0000F9211242F938F939F93EF93FF93E0919A
:1015E0007E02F0917F028081E0918402F091850279
:1015F00082FD1BC09081809187028F5F8F73209145
:101600008802821741F0E0918702F0E0E259FD4F35
:10161000958F80938702FF91EF919F918F912F91EA
:101620000F900FBE0F901F9018958081F4CFEEE6BB
:10163000F2E01382128288EE93E0A0E0B0E08483AF
:101640009583A683B78389E091E09183808385ECBD
:1016500090E09587848784EC90E09787868780EC7C
:1016600090E0918B808B81EC90E0938B828B82EC6D
:1016700090E0958B848B86EC90E0978B868B118E17
:10168000128E138E148E0895789484B5826084BD72
:1016900084B5816084BD85B5826085BD85B5816076
:1016A00085BD80916E00816080936E0010928100F4
:1016B00080918100826080938100809181008160AF
:1016C0008093810080918000816080938000809170
:1016D000B10084608093B1008091B00081608093FC
:1016E000B00080917A00846080937A0080917A00C3
:1016F000826080937A0080917A00816080937A0082
:1017000080917A00806880937A001092C10082E70D
:1017100090E09093400280933F02C5E061E08C2FFF
:101720000E940304CF5FCB30C9F761E08BE00E94D9
:10173000030461E084E00E94030461E082E00E940F
:10174000030461E08DE00E94030461E082E00E94F6
:10175000030461E081E10E94030461E08EE00E94E5
:10176000030461E08FE00E94030461E080E10E94D5
:10177000030461E082E10E94030460E081E10E94D1
:10178000D50360E08EE00E94D50360E08FE00E9408
:10179000D50360E080E10E94D50360E082E10E9411
:1017A000D5030E94610964EF71E080E090E00E943F
:1017B00059040E94610968E873E180E090E00E94AA
:1017C00059040E9499058CE08093340283E0809351
:1017D000330262E00E94030462E08CE00E94030492
:1017E00081E00E948E0380914B028068877F809306
:1017F0004B02E0917E02F0917F0282E08083E091D3
:101800007A02F0917B021082E0917C02F0917D02DD
:101810008FEC808310928602E0918202F091830225
:1018200086E08083E0918002F09181028081806176
:101830008083E0918002F0918102808188608083C2
:10184000E0918002F0918102808180688083E09144
:101850008002F091810280818F7D80838AE191E016
:101860000E94DD09B0E06B2EB0E07B2E0E94800666
:10187000882309F4DEC00E94800630E020E088233F
:1018800079F0E0916C02EF5FE43008F0E0E0E09383
:101890006C02F0E0EE0FFF1FEC59FD4F208131810B
:1018A00030934102122F80910001D0E0C0E08230DD
:1018B00099F46091410280913F0290914002A90108
:1018C0005527440F551FFC0166FFBFC0E057FC4F72
:1018D000E40FF51FC591D49180910001813089F406
:1018E00080914102E0913F02F09140023327220FA4
:1018F000331F86FF02C0E05DFE4FE20FF31FC5916C
:10190000D491E090410284E291E00E948C09BE01F2
:1019100090E080E04AE00E94990987E391E00E940C
:101920008C09812E912CB12CA12C4AE0C501B40167
:101930000E94990987E491E00E948C0940E1C50169
:10194000B4010E9499098EE491E00E948C0987E01D
:10195000C82ED12CF12CB7010C2C02C075956795BF
:101960000A94E2F7617070E090E080E04AE00E9443
:10197000990981E0C81AD10870F787E191E00E94C7
:101980008C0989E591E01A3F79F0143009F06AC0BA
:101990008091410287FF5CC010923E0260E08FE0C0
:1019A0000E94D50380E691E00E94DD09C4E5D1E004
:1019B00080913B02811104C080913A0260E0811164
:1019C00061E080E10E94D503163009F0A6C0809145
:1019D000410287FF9CC01092390289ED91E00E947C
:1019E000DD09C4E5D1E080913902811104C0809104
:1019F000380260E0811161E08EE00E94D5031C3660
:101A000009F09DC00E9461098091410287FD0DC0CF
:101A100082E08093000181E080934C02809151022A
:101A20008F7E809351020E946E0661E082E00E94E8
:101A3000D5036114710409F419CF0E94F6048823B8
:101A400009F414CF0E94000011CFE05AFD4F40CF9F
:101A500081E080933E0261E08FE00E94D50383E73E
:101A600091E0A2CF1E30B9F48091410287FF09C0F6
:101A700010923D0260E081E10E94D50385E891E08B
:101A800093CF81E080933D0261E081E10E94D50324
:101A90008EE891E089CF1A30B9F48091410287FF36
:101AA00009C010923C0260E082E10E94D50386E901
:101AB00091E07ACF81E080933C0261E082E10E9474
:101AC000D50385EA91E070CF183079F48091410216
:101AD00087FF05C010923B0283EB91E065CF81E068
:101AE00080933B028CEB91E05FCF193009F060CF1F
:101AF0008091410287FF05C010923A0284EC91E088
:101B000053CF81E080933A028FEC91E04DCF81E09A
:101B10008093390283EE91E062CF173009F063CFF2
:101B20008091410287FF05C0109238028CEE91E04F
:101B300056CF81E08093380288EF91E050CF133088
:101B400041F58091370291E0892780933702809197
:101B500037028823D9F083E092E00E94DD0961E03A
:101B600082E00E94D50386E090E00E94EB0964E6E3
:101B700070E080E090E00E94590460E082E00E9402
:101B8000D50386E090E00E94EB094FCF80E192E020
:101B9000E4CF1B3681F48091410287FD0CC081E0C7
:101BA0008093000110924C02809151028F7E8093AD
:101BB00051020E946E06C43581E0D80709F435CF82
:101BC000C03AD105F0F0C05AD10980913602811196
:101BD00004C08091350261E0811160E08EE00E94D6
:101BE000D50361E082E00E94D503CE010E94EB099B
:101BF0008091410287FF05C0609135028EE00E940E
:101C0000D5038091410286FF05C081E080933602B2
:101C1000809335028091410287FF08C060E082E036
:101C20000E94D5031092360210923502C43581E02D
:101C3000D80709F4FACECE01A6CFA1E21A2EAA1B2C
:101C4000BB1BFD010DC0AA1FBB1FEE1FFF1FA2176C
:101C5000B307E407F50720F0A21BB30BE40BF50B69
:101C6000661F771F881F991F1A9469F760957095F2
:101C7000809590959B01AC01BD01CF010895EE0FB9
:101C8000FF1F0590F491E02D0994F894FFCF018B8C
:101C9000048B04000000002C058C04B9047905EACB
:101CA00004C804DC040D0A00537461727475702E4C
:101CB0002E0045696E737465696E204B6579636F9C
:101CC00064653A2000202028415343494920436F4E
:101CD00064653A2000204865783A20002920204693
:101CE0006C6167733A200049676E6F7265004B65DF
:101CF00079626F617264205265736574204F666605
:101D0000004B6579626F617264205265736574205F
:101D10004F6E0047525048204F6666004752504869
:101D2000204F6E00414C5048202832353629204F34
:101D3000666600414C5048202832353629204F6EC7
:101D4000004354524C204F6666004354524C204F7F
:101D50006E004354524C2032204F6666004354526A
:101D60004C2032204F6E005348494654204F66663F
:101D7000005348494654204F6E005348494654206A
:101D800032204F66660053484946542032204F6E39
:101D90000043617073204C6F636B204F6E00436192
:0C1DA0007073204C6F636B204F66660070
:107E0000112484B714BE81FFF0D085E080938100F7
:107E100082E08093C00088E18093C10086E0809377
:107E2000C20080E18093C4008EE0C9D0259A86E02C
:107E300020E33CEF91E0309385002093840096BBD3
:107E4000B09BFECF1D9AA8958150A9F7CC24DD24C4
:107E500088248394B5E0AB2EA1E19A2EF3E0BF2EE7
:107E6000A2D0813461F49FD0082FAFD0023811F036
:107E7000013811F484E001C083E08DD089C08234E0
:107E800011F484E103C0853419F485E0A6D080C0E4
:107E9000853579F488D0E82EFF2485D0082F10E0AE
:107EA000102F00270E291F29000F111F8ED06801E7
:107EB0006FC0863521F484E090D080E0DECF843638
:107EC00009F040C070D06FD0082F6DD080E0C81688
:107ED00080E7D80618F4F601B7BEE895C0E0D1E017
:107EE00062D089930C17E1F7F0E0CF16F0E7DF06D8
:107EF00018F0F601B7BEE89568D007B600FCFDCFD4
:107F0000A601A0E0B1E02C9130E011968C91119780
:107F100090E0982F8827822B932B1296FA010C0160
:107F200087BEE89511244E5F5F4FF1E0A038BF0790
:107F300051F7F601A7BEE89507B600FCFDCF97BE46
:107F4000E89526C08437B1F42ED02DD0F82E2BD052
:107F50003CD0F601EF2C8F010F5F1F4F84911BD097
:107F6000EA94F801C1F70894C11CD11CFA94CF0C13
:107F7000D11C0EC0853739F428D08EE10CD085E9AC
:107F80000AD08FE07ACF813511F488E018D01DD067
:107F900080E101D065CF982F8091C00085FFFCCF94
:107FA0009093C60008958091C00087FFFCCF809118
:107FB000C00084FD01C0A8958091C6000895E0E648
:107FC000F0E098E1908380830895EDDF803219F02E
:107FD00088E0F5DFFFCF84E1DECF1F93182FE3DFCA
:107FE0001150E9F7F2DF1F91089580E0E8DFEE27F6
:047FF000FF270994CA
:027FFE00040479
:00000001FF
